{
  "address": "0xb6C565633B5417BC4f5C0434F988B80e1f723E77",
  "abi": [
    {
      "inputs": [],
      "stateMutability": "nonpayable",
      "type": "constructor"
    },
    {
      "inputs": [
        {
          "internalType": "address",
          "name": "signer",
          "type": "address"
        },
        {
          "internalType": "address",
          "name": "sender",
          "type": "address"
        }
      ],
      "name": "InvalidSigner",
      "type": "error"
    },
    {
      "inputs": [
        {
          "internalType": "bytes",
          "name": "data",
          "type": "bytes"
        }
      ],
      "name": "commit",
      "outputs": [
        {
          "internalType": "bytes32",
          "name": "",
          "type": "bytes32"
        }
      ],
      "stateMutability": "pure",
      "type": "function"
    },
    {
      "inputs": [
        {
          "internalType": "bytes",
          "name": "data",
          "type": "bytes"
        },
        {
          "internalType": "uint8",
          "name": "v",
          "type": "uint8"
        },
        {
          "internalType": "bytes32",
          "name": "r",
          "type": "bytes32"
        },
        {
          "internalType": "bytes32",
          "name": "s",
          "type": "bytes32"
        }
      ],
      "name": "verify",
      "outputs": [],
      "stateMutability": "view",
      "type": "function"
    }
  ],
  "transactionHash": "0xcce84108981951bca8e4bab406b5b8ef0f391bafe53b5facd6944dceada79fc8",
  "args": [],
  "numDeployments": 2,
  "solcInputHash": "4c6f0c7f9313c779fa080845ad8c9e9e",
  "bytecode": "0x6080604052348015600f57600080fd5b506105298061001f6000396000f3fe608060405234801561001057600080fd5b50600436106100365760003560e01c80632fd1603a1461003b57806366fd3cd814610057575b600080fd5b6100556004803603810190610050919061033f565b610087565b005b610071600480360381019061006c91906103c2565b610165565b60405161007e919061041a565b60405180910390f35b600061009285610165565b90506000600182868686604051600081526020016040526040516100b99493929190610444565b6020604051602081039080840390855afa1580156100db573d6000803e3d6000fd5b5050506020604051035190503373ffffffffffffffffffffffffffffffffffffffff168173ffffffffffffffffffffffffffffffffffffffff16148133909161015b576040517f7ba5ffb50000000000000000000000000000000000000000000000000000000081526004016101529291906104ca565b60405180910390fd5b5050505050505050565b600081805190602001209050919050565b6000604051905090565b600080fd5b600080fd5b600080fd5b600080fd5b6000601f19601f8301169050919050565b7f4e487b7100000000000000000000000000000000000000000000000000000000600052604160045260246000fd5b6101dd82610194565b810181811067ffffffffffffffff821117156101fc576101fb6101a5565b5b80604052505050565b600061020f610176565b905061021b82826101d4565b919050565b600067ffffffffffffffff82111561023b5761023a6101a5565b5b61024482610194565b9050602081019050919050565b82818337600083830152505050565b600061027361026e84610220565b610205565b90508281526020810184848401111561028f5761028e61018f565b5b61029a848285610251565b509392505050565b600082601f8301126102b7576102b661018a565b5b81356102c7848260208601610260565b91505092915050565b600060ff82169050919050565b6102e6816102d0565b81146102f157600080fd5b50565b600081359050610303816102dd565b92915050565b6000819050919050565b61031c81610309565b811461032757600080fd5b50565b60008135905061033981610313565b92915050565b6000806000806080858703121561035957610358610180565b5b600085013567ffffffffffffffff81111561037757610376610185565b5b610383878288016102a2565b9450506020610394878288016102f4565b93505060406103a58782880161032a565b92505060606103b68782880161032a565b91505092959194509250565b6000602082840312156103d8576103d7610180565b5b600082013567ffffffffffffffff8111156103f6576103f5610185565b5b610402848285016102a2565b91505092915050565b61041481610309565b82525050565b600060208201905061042f600083018461040b565b92915050565b61043e816102d0565b82525050565b6000608082019050610459600083018761040b565b6104666020830186610435565b610473604083018561040b565b610480606083018461040b565b95945050505050565b600073ffffffffffffffffffffffffffffffffffffffff82169050919050565b60006104b482610489565b9050919050565b6104c4816104a9565b82525050565b60006040820190506104df60008301856104bb565b6104ec60208301846104bb565b939250505056fea26469706673582212206c5631c7bc091c1bc69014918f7134d745a9b14083e8b27d784e4e9ba6c9681164736f6c634300081c0033",
  "devdoc": {
    "kind": "dev",
    "methods": {},
    "version": 1
  },
  "userdoc": {
    "kind": "user",
    "methods": {},
    "version": 1
  },
  "storageLayout": {
    "storage": [],
    "types": null
  }
}